{
  "_format": "hh-sol-artifact-1",
  "contractName": "ClaimFaucet",
  "sourceName": "contracts/ClaimFaucet.sol",
  "abi": [
    {
      "inputs": [
        {
          "internalType": "string",
          "name": "_name",
          "type": "string"
        },
        {
          "internalType": "string",
          "name": "_symbol",
          "type": "string"
        }
      ],
      "stateMutability": "nonpayable",
      "type": "constructor"
    },
    {
      "anonymous": false,
      "inputs": [
        {
          "indexed": true,
          "internalType": "address",
          "name": "owner",
          "type": "address"
        },
        {
          "indexed": true,
          "internalType": "address",
          "name": "spender",
          "type": "address"
        },
        {
          "indexed": false,
          "internalType": "uint256",
          "name": "amount",
          "type": "uint256"
        }
      ],
      "name": "Approval",
      "type": "event"
    },
    {
      "anonymous": false,
      "inputs": [
        {
          "indexed": true,
          "internalType": "address",
          "name": "user",
          "type": "address"
        },
        {
          "indexed": false,
          "internalType": "uint256",
          "name": "_amount",
          "type": "uint256"
        },
        {
          "indexed": false,
          "internalType": "uint256",
          "name": "_time",
          "type": "uint256"
        }
      ],
      "name": "TokenClaimSuccesful",
      "type": "event"
    },
    {
      "anonymous": false,
      "inputs": [
        {
          "indexed": true,
          "internalType": "address",
          "name": "sender",
          "type": "address"
        },
        {
          "indexed": true,
          "internalType": "address",
          "name": "reciever",
          "type": "address"
        },
        {
          "indexed": false,
          "internalType": "uint256",
          "name": "amount",
          "type": "uint256"
        }
      ],
      "name": "Transfer",
      "type": "event"
    },
    {
      "inputs": [],
      "name": "CLAIMABLE_AMOUNT",
      "outputs": [
        {
          "internalType": "uint256",
          "name": "",
          "type": "uint256"
        }
      ],
      "stateMutability": "view",
      "type": "function"
    },
    {
      "inputs": [
        {
          "internalType": "address",
          "name": "_owner",
          "type": "address"
        },
        {
          "internalType": "address",
          "name": "_delegate",
          "type": "address"
        }
      ],
      "name": "allowance",
      "outputs": [
        {
          "internalType": "uint256",
          "name": "",
          "type": "uint256"
        }
      ],
      "stateMutability": "view",
      "type": "function"
    },
    {
      "inputs": [
        {
          "internalType": "address",
          "name": "_delegate",
          "type": "address"
        },
        {
          "internalType": "uint256",
          "name": "_amountOfToken",
          "type": "uint256"
        }
      ],
      "name": "approve",
      "outputs": [],
      "stateMutability": "nonpayable",
      "type": "function"
    },
    {
      "inputs": [
        {
          "internalType": "address",
          "name": "_address",
          "type": "address"
        }
      ],
      "name": "balanceOf",
      "outputs": [
        {
          "internalType": "uint256",
          "name": "",
          "type": "uint256"
        }
      ],
      "stateMutability": "view",
      "type": "function"
    },
    {
      "inputs": [
        {
          "internalType": "address",
          "name": "_address",
          "type": "address"
        }
      ],
      "name": "claimToken",
      "outputs": [],
      "stateMutability": "nonpayable",
      "type": "function"
    },
    {
      "inputs": [],
      "name": "decimal",
      "outputs": [
        {
          "internalType": "uint8",
          "name": "",
          "type": "uint8"
        }
      ],
      "stateMutability": "pure",
      "type": "function"
    },
    {
      "inputs": [],
      "name": "getSymbol",
      "outputs": [
        {
          "internalType": "string",
          "name": "",
          "type": "string"
        }
      ],
      "stateMutability": "view",
      "type": "function"
    },
    {
      "inputs": [],
      "name": "getTokenName",
      "outputs": [
        {
          "internalType": "string",
          "name": "",
          "type": "string"
        }
      ],
      "stateMutability": "view",
      "type": "function"
    },
    {
      "inputs": [],
      "name": "getTotalSupply",
      "outputs": [
        {
          "internalType": "uint256",
          "name": "",
          "type": "uint256"
        }
      ],
      "stateMutability": "view",
      "type": "function"
    },
    {
      "inputs": [
        {
          "internalType": "address",
          "name": "_reciever",
          "type": "address"
        },
        {
          "internalType": "uint256",
          "name": "_amountOfToken",
          "type": "uint256"
        }
      ],
      "name": "transfer",
      "outputs": [],
      "stateMutability": "nonpayable",
      "type": "function"
    },
    {
      "inputs": [
        {
          "internalType": "address",
          "name": "_owner",
          "type": "address"
        },
        {
          "internalType": "address",
          "name": "_buyer",
          "type": "address"
        },
        {
          "internalType": "uint256",
          "name": "_amountOfToken",
          "type": "uint256"
        }
      ],
      "name": "transferFrom",
      "outputs": [],
      "stateMutability": "nonpayable",
      "type": "function"
    }
  ],
  "bytecode": "0x608060405234801561001057600080fd5b50604051611d75380380611d758339818101604052810190610032919061036d565b818181600090816100439190610606565b5080600190816100539190610606565b5033600360006101000a81548173ffffffffffffffffffffffffffffffffffffffff021916908373ffffffffffffffffffffffffffffffffffffffff1602179055506100ca620f4240600360009054906101000a900473ffffffffffffffffffffffffffffffffffffffff166100d360201b60201c565b505050506107a7565b6000670de0b6b3a7640000836100e99190610707565b905080600460008473ffffffffffffffffffffffffffffffffffffffff1673ffffffffffffffffffffffffffffffffffffffff168152602001908152602001600020546101369190610749565b600460008473ffffffffffffffffffffffffffffffffffffffff1673ffffffffffffffffffffffffffffffffffffffff16815260200190815260200160002081905550806002546101879190610749565b6002819055508173ffffffffffffffffffffffffffffffffffffffff16600073ffffffffffffffffffffffffffffffffffffffff167fddf252ad1be2c89b69c2b068fc378daa952ba7f163c4a11628f55a4df523b3ef836040516101eb919061078c565b60405180910390a3505050565b6000604051905090565b600080fd5b600080fd5b600080fd5b600080fd5b6000601f19601f8301169050919050565b7f4e487b7100000000000000000000000000000000000000000000000000000000600052604160045260246000fd5b61025f82610216565b810181811067ffffffffffffffff8211171561027e5761027d610227565b5b80604052505050565b60006102916101f8565b905061029d8282610256565b919050565b600067ffffffffffffffff8211156102bd576102bc610227565b5b6102c682610216565b9050602081019050919050565b60005b838110156102f15780820151818401526020810190506102d6565b60008484015250505050565b600061031061030b846102a2565b610287565b90508281526020810184848401111561032c5761032b610211565b5b6103378482856102d3565b509392505050565b600082601f8301126103545761035361020c565b5b81516103648482602086016102fd565b91505092915050565b6000806040838503121561038457610383610202565b5b600083015167ffffffffffffffff8111156103a2576103a1610207565b5b6103ae8582860161033f565b925050602083015167ffffffffffffffff8111156103cf576103ce610207565b5b6103db8582860161033f565b9150509250929050565b600081519050919050565b7f4e487b7100000000000000000000000000000000000000000000000000000000600052602260045260246000fd5b6000600282049050600182168061043757607f821691505b60208210810361044a576104496103f0565b5b50919050565b60008190508160005260206000209050919050565b60006020601f8301049050919050565b600082821b905092915050565b6000600883026104b27fffffffffffffffffffffffffffffffffffffffffffffffffffffffffffffffff82610475565b6104bc8683610475565b95508019841693508086168417925050509392505050565b6000819050919050565b6000819050919050565b60006105036104fe6104f9846104d4565b6104de565b6104d4565b9050919050565b6000819050919050565b61051d836104e8565b6105316105298261050a565b848454610482565b825550505050565b600090565b610546610539565b610551818484610514565b505050565b5b818110156105755761056a60008261053e565b600181019050610557565b5050565b601f8211156105ba5761058b81610450565b61059484610465565b810160208510156105a3578190505b6105b76105af85610465565b830182610556565b50505b505050565b600082821c905092915050565b60006105dd600019846008026105bf565b1980831691505092915050565b60006105f683836105cc565b9150826002028217905092915050565b61060f826103e5565b67ffffffffffffffff81111561062857610627610227565b5b610632825461041f565b61063d828285610579565b600060209050601f831160018114610670576000841561065e578287015190505b61066885826105ea565b8655506106d0565b601f19841661067e86610450565b60005b828110156106a657848901518255600182019150602085019450602081019050610681565b868310156106c357848901516106bf601f8916826105cc565b8355505b6001600288020188555050505b505050505050565b7f4e487b7100000000000000000000000000000000000000000000000000000000600052601160045260246000fd5b6000610712826104d4565b915061071d836104d4565b925082820261072b816104d4565b91508282048414831517610742576107416106d8565b5b5092915050565b6000610754826104d4565b915061075f836104d4565b9250828201905080821115610777576107766106d8565b5b92915050565b610786816104d4565b82525050565b60006020820190506107a1600083018461077d565b92915050565b6115bf806107b66000396000f3fe608060405234801561001057600080fd5b50600436106100a95760003560e01c806376809ce31161007157806376809ce314610150578063862b092b1461016e578063a9059cbb1461018c578063c4e41b22146101a8578063dd62ed3e146101c6578063e741bec3146101f6576100a9565b8063095ea7b3146100ae57806315070401146100ca57806323b872dd146100e857806332f289cf1461010457806370a0823114610120575b600080fd5b6100c860048036038101906100c39190610fd2565b610214565b005b6100d261037f565b6040516100df91906110a2565b60405180910390f35b61010260048036038101906100fd91906110c4565b610411565b005b61011e60048036038101906101199190611117565b6107dd565b005b61013a60048036038101906101359190611117565b610a42565b6040516101479190611153565b60405180910390f35b610158610a8b565b604051610165919061118a565b60405180910390f35b610176610a94565b60405161018391906110a2565b60405180910390f35b6101a660048036038101906101a19190610fd2565b610b26565b005b6101b0610d64565b6040516101bd9190611153565b60405180910390f35b6101e060048036038101906101db91906111a5565b610d6e565b6040516101ed9190611153565b60405180910390f35b6101fe610df5565b60405161020b9190611153565b60405180910390f35b80600460003373ffffffffffffffffffffffffffffffffffffffff1673ffffffffffffffffffffffffffffffffffffffff1681526020019081526020016000205411610295576040517f08c379a000000000000000000000000000000000000000000000000000000000815260040161028c90611231565b60405180910390fd5b80600560003373ffffffffffffffffffffffffffffffffffffffff1673ffffffffffffffffffffffffffffffffffffffff16815260200190815260200160002060008473ffffffffffffffffffffffffffffffffffffffff1673ffffffffffffffffffffffffffffffffffffffff168152602001908152602001600020819055508173ffffffffffffffffffffffffffffffffffffffff163373ffffffffffffffffffffffffffffffffffffffff167f8c5be1e5ebec7d5bd14f71427d1e84f3dd0314c0f7b2291e5b200ac8c7c3b925836040516103739190611153565b60405180910390a35050565b60606001805461038e90611280565b80601f01602080910402602001604051908101604052809291908181526020018280546103ba90611280565b80156104075780601f106103dc57610100808354040283529160200191610407565b820191906000526020600020905b8154815290600101906020018083116103ea57829003601f168201915b5050505050905090565b600073ffffffffffffffffffffffffffffffffffffffff168373ffffffffffffffffffffffffffffffffffffffff1603610480576040517f08c379a0000000000000000000000000000000000000000000000000000000008152600401610477906112fd565b60405180910390fd5b600073ffffffffffffffffffffffffffffffffffffffff168273ffffffffffffffffffffffffffffffffffffffff16036104ef576040517f08c379a00000000000000000000000000000000000000000000000000000000081526004016104e6906112fd565b60405180910390fd5b600460008473ffffffffffffffffffffffffffffffffffffffff1673ffffffffffffffffffffffffffffffffffffffff1681526020019081526020016000205481111561053b57600080fd5b600560008473ffffffffffffffffffffffffffffffffffffffff1673ffffffffffffffffffffffffffffffffffffffff16815260200190815260200160002060003373ffffffffffffffffffffffffffffffffffffffff1673ffffffffffffffffffffffffffffffffffffffff168152602001908152602001600020548111156105c457600080fd5b80600460008573ffffffffffffffffffffffffffffffffffffffff1673ffffffffffffffffffffffffffffffffffffffff1681526020019081526020016000205461060f919061134c565b600460008573ffffffffffffffffffffffffffffffffffffffff1673ffffffffffffffffffffffffffffffffffffffff1681526020019081526020016000208190555080600560008573ffffffffffffffffffffffffffffffffffffffff1673ffffffffffffffffffffffffffffffffffffffff16815260200190815260200160002060003373ffffffffffffffffffffffffffffffffffffffff1673ffffffffffffffffffffffffffffffffffffffff16815260200190815260200160002060008282546106de919061134c565b9250508190555080600460008473ffffffffffffffffffffffffffffffffffffffff1673ffffffffffffffffffffffffffffffffffffffff168152602001908152602001600020546107309190611380565b600460008473ffffffffffffffffffffffffffffffffffffffff1673ffffffffffffffffffffffffffffffffffffffff168152602001908152602001600020819055508173ffffffffffffffffffffffffffffffffffffffff168373ffffffffffffffffffffffffffffffffffffffff167fddf252ad1be2c89b69c2b068fc378daa952ba7f163c4a11628f55a4df523b3ef836040516107d09190611153565b60405180910390a3505050565b600073ffffffffffffffffffffffffffffffffffffffff163373ffffffffffffffffffffffffffffffffffffffff160361084c576040517f08c379a000000000000000000000000000000000000000000000000000000000815260040161084390611400565b60405180910390fd5b600760008273ffffffffffffffffffffffffffffffffffffffff1673ffffffffffffffffffffffffffffffffffffffff16815260200190815260200160002060009054906101000a900460ff16156109bd576000600660008373ffffffffffffffffffffffffffffffffffffffff1673ffffffffffffffffffffffffffffffffffffffff1681526020019081526020016000209050426201518082600001546108f59190611380565b1115610936576040517f08c379a000000000000000000000000000000000000000000000000000000000815260040161092d9061146c565b60405180910390fd5b428160000181905550600a8160010160008282546109549190611380565b92505081905550610966600a83610dfa565b8173ffffffffffffffffffffffffffffffffffffffff167ff5f0d0a62709781330197dee2c89115410494f3f00cbf1708ff49a0b17c16596600a426040516109af92919061148c565b60405180910390a250610a3f565b6001600760008373ffffffffffffffffffffffffffffffffffffffff1673ffffffffffffffffffffffffffffffffffffffff16815260200190815260200160002060006101000a81548160ff021916908315150217905550610a20600a82610dfa565b610a28610f1f565b42816000018181525050600a816020018181525050505b50565b6000600460008373ffffffffffffffffffffffffffffffffffffffff1673ffffffffffffffffffffffffffffffffffffffff168152602001908152602001600020549050919050565b60006012905090565b606060008054610aa390611280565b80601f0160208091040260200160405190810160405280929190818152602001828054610acf90611280565b8015610b1c5780601f10610af157610100808354040283529160200191610b1c565b820191906000526020600020905b815481529060010190602001808311610aff57829003601f168201915b5050505050905090565b600073ffffffffffffffffffffffffffffffffffffffff168273ffffffffffffffffffffffffffffffffffffffff1603610b95576040517f08c379a0000000000000000000000000000000000000000000000000000000008152600401610b8c906112fd565b60405180910390fd5b600460003373ffffffffffffffffffffffffffffffffffffffff1673ffffffffffffffffffffffffffffffffffffffff16815260200190815260200160002054811115610c17576040517f08c379a0000000000000000000000000000000000000000000000000000000008152600401610c0e90611527565b60405180910390fd5b80600460003373ffffffffffffffffffffffffffffffffffffffff1673ffffffffffffffffffffffffffffffffffffffff1681526020019081526020016000206000828254610c66919061134c565b9250508190555080600460008473ffffffffffffffffffffffffffffffffffffffff1673ffffffffffffffffffffffffffffffffffffffff16815260200190815260200160002054610cb89190611380565b600460008473ffffffffffffffffffffffffffffffffffffffff1673ffffffffffffffffffffffffffffffffffffffff168152602001908152602001600020819055508173ffffffffffffffffffffffffffffffffffffffff163373ffffffffffffffffffffffffffffffffffffffff167fddf252ad1be2c89b69c2b068fc378daa952ba7f163c4a11628f55a4df523b3ef83604051610d589190611153565b60405180910390a35050565b6000600254905090565b6000600560008473ffffffffffffffffffffffffffffffffffffffff1673ffffffffffffffffffffffffffffffffffffffff16815260200190815260200160002060008373ffffffffffffffffffffffffffffffffffffffff1673ffffffffffffffffffffffffffffffffffffffff16815260200190815260200160002054905092915050565b600a81565b6000670de0b6b3a764000083610e109190611547565b905080600460008473ffffffffffffffffffffffffffffffffffffffff1673ffffffffffffffffffffffffffffffffffffffff16815260200190815260200160002054610e5d9190611380565b600460008473ffffffffffffffffffffffffffffffffffffffff1673ffffffffffffffffffffffffffffffffffffffff1681526020019081526020016000208190555080600254610eae9190611380565b6002819055508173ffffffffffffffffffffffffffffffffffffffff16600073ffffffffffffffffffffffffffffffffffffffff167fddf252ad1be2c89b69c2b068fc378daa952ba7f163c4a11628f55a4df523b3ef83604051610f129190611153565b60405180910390a3505050565b604051806040016040528060008152602001600081525090565b600080fd5b600073ffffffffffffffffffffffffffffffffffffffff82169050919050565b6000610f6982610f3e565b9050919050565b610f7981610f5e565b8114610f8457600080fd5b50565b600081359050610f9681610f70565b92915050565b6000819050919050565b610faf81610f9c565b8114610fba57600080fd5b50565b600081359050610fcc81610fa6565b92915050565b60008060408385031215610fe957610fe8610f39565b5b6000610ff785828601610f87565b925050602061100885828601610fbd565b9150509250929050565b600081519050919050565b600082825260208201905092915050565b60005b8381101561104c578082015181840152602081019050611031565b60008484015250505050565b6000601f19601f8301169050919050565b600061107482611012565b61107e818561101d565b935061108e81856020860161102e565b61109781611058565b840191505092915050565b600060208201905081810360008301526110bc8184611069565b905092915050565b6000806000606084860312156110dd576110dc610f39565b5b60006110eb86828701610f87565b93505060206110fc86828701610f87565b925050604061110d86828701610fbd565b9150509250925092565b60006020828403121561112d5761112c610f39565b5b600061113b84828501610f87565b91505092915050565b61114d81610f9c565b82525050565b60006020820190506111686000830184611144565b92915050565b600060ff82169050919050565b6111848161116e565b82525050565b600060208201905061119f600083018461117b565b92915050565b600080604083850312156111bc576111bb610f39565b5b60006111ca85828601610f87565b92505060206111db85828601610f87565b9150509250929050565b7f42616c616e6365206973206e6f7420656e6f7567680000000000000000000000600082015250565b600061121b60158361101d565b9150611226826111e5565b602082019050919050565b6000602082019050818103600083015261124a8161120e565b9050919050565b7f4e487b7100000000000000000000000000000000000000000000000000000000600052602260045260246000fd5b6000600282049050600182168061129857607f821691505b6020821081036112ab576112aa611251565b5b50919050565b7f41646472657373206973206e6f7420616c6c6f77656400000000000000000000600082015250565b60006112e760168361101d565b91506112f2826112b1565b602082019050919050565b60006020820190508181036000830152611316816112da565b9050919050565b7f4e487b7100000000000000000000000000000000000000000000000000000000600052601160045260246000fd5b600061135782610f9c565b915061136283610f9c565b925082820390508181111561137a5761137961131d565b5b92915050565b600061138b82610f9c565b915061139683610f9c565b92508282019050808211156113ae576113ad61131d565b5b92915050565b7f5a65726f2061646472657373206e6f7420616c6c6f7765640000000000000000600082015250565b60006113ea60188361101d565b91506113f5826113b4565b602082019050919050565b60006020820190508181036000830152611419816113dd565b9050919050565b7f596f7520636c61696d206f6e636520616674657220323420686f757273000000600082015250565b6000611456601d8361101d565b915061146182611420565b602082019050919050565b6000602082019050818103600083015261148581611449565b9050919050565b60006040820190506114a16000830185611144565b6114ae6020830184611144565b9392505050565b7f596f752063616e27742074616b65206d6f7265207468616e207768617420697360008201527f206176616c6961626c6500000000000000000000000000000000000000000000602082015250565b6000611511602a8361101d565b915061151c826114b5565b604082019050919050565b6000602082019050818103600083015261154081611504565b9050919050565b600061155282610f9c565b915061155d83610f9c565b925082820261156b81610f9c565b915082820484148315176115825761158161131d565b5b509291505056fea2646970667358221220909139f0e82f2054ea973c40610ea694e69dd649ab2ee3b6de758fdab11eda7e64736f6c634300081b0033",
  "linkReferences": {},
  "deployedLinkReferences": {}
}